{
  "contractName": "XYZCoin",
  "abi": [
    {
      "constant": true,
      "inputs": [],
      "name": "name",
      "outputs": [
        {
          "name": "",
          "type": "string"
        }
      ],
      "payable": false,
      "stateMutability": "view",
      "type": "function"
    },
    {
      "constant": true,
      "inputs": [],
      "name": "totalSupply",
      "outputs": [
        {
          "name": "",
          "type": "uint256"
        }
      ],
      "payable": false,
      "stateMutability": "view",
      "type": "function"
    },
    {
      "constant": true,
      "inputs": [],
      "name": "decimals",
      "outputs": [
        {
          "name": "",
          "type": "uint8"
        }
      ],
      "payable": false,
      "stateMutability": "view",
      "type": "function"
    },
    {
      "constant": true,
      "inputs": [
        {
          "name": "",
          "type": "address"
        },
        {
          "name": "",
          "type": "address"
        }
      ],
      "name": "allowed",
      "outputs": [
        {
          "name": "",
          "type": "uint256"
        }
      ],
      "payable": false,
      "stateMutability": "view",
      "type": "function"
    },
    {
      "constant": true,
      "inputs": [],
      "name": "symbol",
      "outputs": [
        {
          "name": "",
          "type": "string"
        }
      ],
      "payable": false,
      "stateMutability": "view",
      "type": "function"
    },
    {
      "inputs": [],
      "payable": false,
      "stateMutability": "nonpayable",
      "type": "constructor"
    },
    {
      "anonymous": false,
      "inputs": [
        {
          "indexed": true,
          "name": "_from",
          "type": "address"
        },
        {
          "indexed": true,
          "name": "_to",
          "type": "address"
        },
        {
          "indexed": false,
          "name": "_value",
          "type": "uint256"
        }
      ],
      "name": "Transfer",
      "type": "event"
    },
    {
      "anonymous": false,
      "inputs": [
        {
          "indexed": true,
          "name": "_owner",
          "type": "address"
        },
        {
          "indexed": true,
          "name": "_spender",
          "type": "address"
        },
        {
          "indexed": false,
          "name": "_value",
          "type": "uint256"
        }
      ],
      "name": "Approval",
      "type": "event"
    },
    {
      "constant": true,
      "inputs": [
        {
          "name": "account",
          "type": "address"
        }
      ],
      "name": "balanceOf",
      "outputs": [
        {
          "name": "",
          "type": "uint256"
        }
      ],
      "payable": false,
      "stateMutability": "view",
      "type": "function"
    },
    {
      "constant": false,
      "inputs": [
        {
          "name": "recipient",
          "type": "address"
        },
        {
          "name": "amount",
          "type": "uint256"
        }
      ],
      "name": "transfer",
      "outputs": [
        {
          "name": "",
          "type": "bool"
        }
      ],
      "payable": false,
      "stateMutability": "nonpayable",
      "type": "function"
    },
    {
      "constant": true,
      "inputs": [
        {
          "name": "owner",
          "type": "address"
        },
        {
          "name": "spender",
          "type": "address"
        }
      ],
      "name": "allowance",
      "outputs": [
        {
          "name": "",
          "type": "uint256"
        }
      ],
      "payable": false,
      "stateMutability": "view",
      "type": "function"
    },
    {
      "constant": false,
      "inputs": [
        {
          "name": "spender",
          "type": "address"
        },
        {
          "name": "amount",
          "type": "uint256"
        }
      ],
      "name": "approve",
      "outputs": [
        {
          "name": "",
          "type": "bool"
        }
      ],
      "payable": false,
      "stateMutability": "nonpayable",
      "type": "function"
    },
    {
      "constant": false,
      "inputs": [
        {
          "name": "sender",
          "type": "address"
        },
        {
          "name": "recipient",
          "type": "address"
        },
        {
          "name": "amount",
          "type": "uint256"
        }
      ],
      "name": "transferFrom",
      "outputs": [
        {
          "name": "",
          "type": "bool"
        }
      ],
      "payable": false,
      "stateMutability": "nonpayable",
      "type": "function"
    }
  ],
  "bytecode": "0x60c0604052600860808190527f58595a20436f696e00000000000000000000000000000000000000000000000060a090815261003e91600091906100b9565b506040805180820190915260038082527f58595a00000000000000000000000000000000000000000000000000000000006020909201918252610083916001916100b9565b506002805460ff191690556103e86003553480156100a057600080fd5b5060035433600090815260046020526040902055610154565b828054600181600116156101000203166002900490600052602060002090601f016020900481019282601f106100fa57805160ff1916838001178555610127565b82800160010185558215610127579182015b8281111561012757825182559160200191906001019061010c565b50610133929150610137565b5090565b61015191905b80821115610133576000815560010161013d565b90565b610943806101636000396000f3fe60806040526004361061009d577c0100000000000000000000000000000000000000000000000000000000600035046306fdde0381146100a2578063095ea7b31461012c57806318160ddd1461017957806323b872dd146101a0578063313ce567146101e35780635c6581651461020e57806370a082311461024957806395d89b411461027c578063a9059cbb14610291578063dd62ed3e146102ca575b600080fd5b3480156100ae57600080fd5b506100b7610305565b6040805160208082528351818301528351919283929083019185019080838360005b838110156100f15781810151838201526020016100d9565b50505050905090810190601f16801561011e5780820380516001836020036101000a031916815260200191505b509250505060405180910390f35b34801561013857600080fd5b506101656004803603604081101561014f57600080fd5b50600160a060020a038135169060200135610393565b604080519115158252519081900360200190f35b34801561018557600080fd5b5061018e6103f9565b60408051918252519081900360200190f35b3480156101ac57600080fd5b50610165600480360360608110156101c357600080fd5b50600160a060020a038135811691602081013590911690604001356103ff565b3480156101ef57600080fd5b506101f86106ce565b6040805160ff9092168252519081900360200190f35b34801561021a57600080fd5b5061018e6004803603604081101561023157600080fd5b50600160a060020a03813581169160200135166106d7565b34801561025557600080fd5b5061018e6004803603602081101561026c57600080fd5b5035600160a060020a03166106f4565b34801561028857600080fd5b506100b761070f565b34801561029d57600080fd5b50610165600480360360408110156102b457600080fd5b50600160a060020a038135169060200135610769565b3480156102d657600080fd5b5061018e600480360360408110156102ed57600080fd5b50600160a060020a03813581169160200135166108ec565b6000805460408051602060026001851615610100026000190190941693909304601f8101849004840282018401909252818152929183018282801561038b5780601f106103605761010080835404028352916020019161038b565b820191906000526020600020905b81548152906001019060200180831161036e57829003601f168201915b505050505081565b336000818152600560209081526040808320600160a060020a038716808552908352818420869055815186815291519394909390927f8c5be1e5ebec7d5bd14f71427d1e84f3dd0314c0f7b2291e5b200ac8c7c3b925928290030190a350600192915050565b60035481565b6000600160a060020a0384161515610487576040805160e560020a62461bcd02815260206004820152602560248201527f45524332303a207472616e736665722066726f6d20746865207a65726f20616460448201527f6472657373000000000000000000000000000000000000000000000000000000606482015290519081900360840190fd5b600160a060020a038316151561050d576040805160e560020a62461bcd02815260206004820152602360248201527f45524332303a207472616e7366657220746f20746865207a65726f206164647260448201527f6573730000000000000000000000000000000000000000000000000000000000606482015290519081900360840190fd5b600160a060020a0384166000908152600460205260409020548211156105a3576040805160e560020a62461bcd02815260206004820152602660248201527f45524332303a207472616e7366657220616d6f756e742065786365656473206260448201527f616c616e63650000000000000000000000000000000000000000000000000000606482015290519081900360840190fd5b600160a060020a0384166000908152600560209081526040808320338452909152902054821115610644576040805160e560020a62461bcd02815260206004820152602860248201527f45524332303a207472616e7366657220616d6f756e742065786365656473206160448201527f6c6c6f77616e6365000000000000000000000000000000000000000000000000606482015290519081900360840190fd5b600160a060020a0380851660008181526004602090815260408083208054889003905593871680835284832080548801905583835260058252848320338452825291849020805487900390558351868152935191937fddf252ad1be2c89b69c2b068fc378daa952ba7f163c4a11628f55a4df523b3ef929081900390910190a35060019392505050565b60025460ff1681565b600560209081526000928352604080842090915290825290205481565b600160a060020a031660009081526004602052604090205490565b60018054604080516020600284861615610100026000190190941693909304601f8101849004840282018401909252818152929183018282801561038b5780601f106103605761010080835404028352916020019161038b565b6000600160a060020a03831615156107f1576040805160e560020a62461bcd02815260206004820152602360248201527f45524332303a207472616e7366657220746f20746865207a65726f206164647260448201527f6573730000000000000000000000000000000000000000000000000000000000606482015290519081900360840190fd5b3360009081526004602052604090205482111561087e576040805160e560020a62461bcd02815260206004820152602660248201527f45524332303a207472616e7366657220616d6f756e742065786365656473206260448201527f616c616e63650000000000000000000000000000000000000000000000000000606482015290519081900360840190fd5b33600081815260046020908152604080832080548790039055600160a060020a03871680845292819020805487019055805186815290519293927fddf252ad1be2c89b69c2b068fc378daa952ba7f163c4a11628f55a4df523b3ef929181900390910190a350600192915050565b600160a060020a0391821660009081526005602090815260408083209390941682529190915220549056fea165627a7a723058203861108079920ac2422004bf3631f6410d9a1b871f97f99f4535866080b2bac90029",
  "source": "pragma solidity ^0.5.1;\r\n\r\nimport \"./ERC20.sol\";\r\ncontract XYZCoin is ERC20 {\r\n    string public name = \"XYZ Coin\";\r\n    string public symbol = \"XYZ\";\r\n    uint8 public decimals = 0;\r\n    uint256 public totalSupply = 1000;\r\n\r\n    mapping(address => uint256) balances;\r\n    mapping (address => mapping (address => uint256)) public allowed;\r\n\r\n    constructor() public {\r\n        balances[msg.sender] = totalSupply;\r\n    }\r\n\r\n    function balanceOf(address account) public view returns (uint256) {\r\n        return balances[account];\r\n    }\r\n\r\n     function transfer(address recipient, uint256 amount) public returns (bool) {\r\n        require(recipient != address(0), \"ERC20: transfer to the zero address\");\r\n        require(amount <= balances[msg.sender], \"ERC20: transfer amount exceeds balance\");\r\n\r\n        balances[msg.sender] -= amount;\r\n        balances[recipient] += amount;\r\n\r\n        emit Transfer(msg.sender, recipient, amount);\r\n        return true;\r\n    }\r\n\r\n    function allowance(address owner, address spender) public view returns (uint256) {\r\n        return allowed[owner][spender];\r\n    }\r\n\r\n    function approve(address spender, uint256 amount) public returns (bool) {\r\n        allowed[msg.sender][spender] = amount;\r\n        emit Approval(msg.sender, spender, amount);\r\n        return true;\r\n    }\r\n\r\n    function transferFrom(address sender, address recipient, uint256 amount) public returns (bool) {\r\n        require(sender != address(0), \"ERC20: transfer from the zero address\");\r\n        require(recipient != address(0), \"ERC20: transfer to the zero address\");\r\n        require(amount <= balances[sender], \"ERC20: transfer amount exceeds balance\");\r\n        require(amount <= allowed[sender][msg.sender], \"ERC20: transfer amount exceeds allowance\");\r\n\r\n        balances[sender] -= amount;\r\n        balances[recipient] += amount;\r\n        allowed[sender][msg.sender] -= amount;\r\n\r\n        emit Transfer(sender, recipient, amount);\r\n        return true;\r\n    }\r\n}\r\n\r\n",
  "sourcePath": "C:\\Users\\huzhejia\\Desktop\\huzhejia4\\contracts\\XYZCoin.sol",
  "compiler": {
    "name": "solc",
    "version": "0.5.1+commit.c8a2cb62.Emscripten.clang"
  },
  "schemaVersion": "3.4.16",
  "updatedAt": "2024-08-05T08:28:13.261Z",
  "networkType": "ethereum",
  "devdoc": {
    "methods": {}
  },
  "userdoc": {
    "methods": {}
  }
}